{
  "_format": "hh-sol-artifact-1",
  "contractName": "KouohNFT",
  "sourceName": "contracts/KouohNFT.sol",
  "abi": [
    {
      "inputs": [],
      "stateMutability": "nonpayable",
      "type": "constructor"
    },
    {
      "inputs": [
        {
          "internalType": "address",
          "name": "sender",
          "type": "address"
        },
        {
          "internalType": "uint256",
          "name": "tokenId",
          "type": "uint256"
        },
        {
          "internalType": "address",
          "name": "owner",
          "type": "address"
        }
      ],
      "name": "ERC721IncorrectOwner",
      "type": "error"
    },
    {
      "inputs": [
        {
          "internalType": "address",
          "name": "operator",
          "type": "address"
        },
        {
          "internalType": "uint256",
          "name": "tokenId",
          "type": "uint256"
        }
      ],
      "name": "ERC721InsufficientApproval",
      "type": "error"
    },
    {
      "inputs": [
        {
          "internalType": "address",
          "name": "approver",
          "type": "address"
        }
      ],
      "name": "ERC721InvalidApprover",
      "type": "error"
    },
    {
      "inputs": [
        {
          "internalType": "address",
          "name": "operator",
          "type": "address"
        }
      ],
      "name": "ERC721InvalidOperator",
      "type": "error"
    },
    {
      "inputs": [
        {
          "internalType": "address",
          "name": "owner",
          "type": "address"
        }
      ],
      "name": "ERC721InvalidOwner",
      "type": "error"
    },
    {
      "inputs": [
        {
          "internalType": "address",
          "name": "receiver",
          "type": "address"
        }
      ],
      "name": "ERC721InvalidReceiver",
      "type": "error"
    },
    {
      "inputs": [
        {
          "internalType": "address",
          "name": "sender",
          "type": "address"
        }
      ],
      "name": "ERC721InvalidSender",
      "type": "error"
    },
    {
      "inputs": [
        {
          "internalType": "uint256",
          "name": "tokenId",
          "type": "uint256"
        }
      ],
      "name": "ERC721NonexistentToken",
      "type": "error"
    },
    {
      "inputs": [
        {
          "internalType": "address",
          "name": "owner",
          "type": "address"
        }
      ],
      "name": "OwnableInvalidOwner",
      "type": "error"
    },
    {
      "inputs": [
        {
          "internalType": "address",
          "name": "account",
          "type": "address"
        }
      ],
      "name": "OwnableUnauthorizedAccount",
      "type": "error"
    },
    {
      "anonymous": false,
      "inputs": [
        {
          "indexed": true,
          "internalType": "address",
          "name": "owner",
          "type": "address"
        },
        {
          "indexed": true,
          "internalType": "address",
          "name": "approved",
          "type": "address"
        },
        {
          "indexed": true,
          "internalType": "uint256",
          "name": "tokenId",
          "type": "uint256"
        }
      ],
      "name": "Approval",
      "type": "event"
    },
    {
      "anonymous": false,
      "inputs": [
        {
          "indexed": true,
          "internalType": "address",
          "name": "owner",
          "type": "address"
        },
        {
          "indexed": true,
          "internalType": "address",
          "name": "operator",
          "type": "address"
        },
        {
          "indexed": false,
          "internalType": "bool",
          "name": "approved",
          "type": "bool"
        }
      ],
      "name": "ApprovalForAll",
      "type": "event"
    },
    {
      "anonymous": false,
      "inputs": [
        {
          "indexed": false,
          "internalType": "uint256",
          "name": "_fromTokenId",
          "type": "uint256"
        },
        {
          "indexed": false,
          "internalType": "uint256",
          "name": "_toTokenId",
          "type": "uint256"
        }
      ],
      "name": "BatchMetadataUpdate",
      "type": "event"
    },
    {
      "anonymous": false,
      "inputs": [
        {
          "indexed": false,
          "internalType": "uint256",
          "name": "_tokenId",
          "type": "uint256"
        }
      ],
      "name": "MetadataUpdate",
      "type": "event"
    },
    {
      "anonymous": false,
      "inputs": [
        {
          "indexed": true,
          "internalType": "address",
          "name": "previousOwner",
          "type": "address"
        },
        {
          "indexed": true,
          "internalType": "address",
          "name": "newOwner",
          "type": "address"
        }
      ],
      "name": "OwnershipTransferred",
      "type": "event"
    },
    {
      "anonymous": false,
      "inputs": [
        {
          "indexed": true,
          "internalType": "address",
          "name": "from",
          "type": "address"
        },
        {
          "indexed": true,
          "internalType": "address",
          "name": "to",
          "type": "address"
        },
        {
          "indexed": true,
          "internalType": "uint256",
          "name": "tokenId",
          "type": "uint256"
        }
      ],
      "name": "Transfer",
      "type": "event"
    },
    {
      "inputs": [
        {
          "internalType": "address",
          "name": "to",
          "type": "address"
        },
        {
          "internalType": "uint256",
          "name": "tokenId",
          "type": "uint256"
        }
      ],
      "name": "approve",
      "outputs": [],
      "stateMutability": "nonpayable",
      "type": "function"
    },
    {
      "inputs": [
        {
          "internalType": "address",
          "name": "owner",
          "type": "address"
        }
      ],
      "name": "balanceOf",
      "outputs": [
        {
          "internalType": "uint256",
          "name": "",
          "type": "uint256"
        }
      ],
      "stateMutability": "view",
      "type": "function"
    },
    {
      "inputs": [
        {
          "internalType": "uint256",
          "name": "tokenId",
          "type": "uint256"
        }
      ],
      "name": "getApproved",
      "outputs": [
        {
          "internalType": "address",
          "name": "",
          "type": "address"
        }
      ],
      "stateMutability": "view",
      "type": "function"
    },
    {
      "inputs": [
        {
          "internalType": "uint256",
          "name": "tokenId",
          "type": "uint256"
        }
      ],
      "name": "getPurchaseInfo",
      "outputs": [
        {
          "components": [
            {
              "internalType": "string",
              "name": "brandName",
              "type": "string"
            },
            {
              "internalType": "string",
              "name": "scentType",
              "type": "string"
            },
            {
              "internalType": "uint256",
              "name": "purchaseDate",
              "type": "uint256"
            }
          ],
          "internalType": "struct KouohNFT.PurchaseInfo",
          "name": "",
          "type": "tuple"
        }
      ],
      "stateMutability": "view",
      "type": "function"
    },
    {
      "inputs": [
        {
          "internalType": "address",
          "name": "owner",
          "type": "address"
        },
        {
          "internalType": "address",
          "name": "operator",
          "type": "address"
        }
      ],
      "name": "isApprovedForAll",
      "outputs": [
        {
          "internalType": "bool",
          "name": "",
          "type": "bool"
        }
      ],
      "stateMutability": "view",
      "type": "function"
    },
    {
      "inputs": [],
      "name": "name",
      "outputs": [
        {
          "internalType": "string",
          "name": "",
          "type": "string"
        }
      ],
      "stateMutability": "view",
      "type": "function"
    },
    {
      "inputs": [],
      "name": "owner",
      "outputs": [
        {
          "internalType": "address",
          "name": "",
          "type": "address"
        }
      ],
      "stateMutability": "view",
      "type": "function"
    },
    {
      "inputs": [
        {
          "internalType": "uint256",
          "name": "tokenId",
          "type": "uint256"
        }
      ],
      "name": "ownerOf",
      "outputs": [
        {
          "internalType": "address",
          "name": "",
          "type": "address"
        }
      ],
      "stateMutability": "view",
      "type": "function"
    },
    {
      "inputs": [
        {
          "internalType": "uint256",
          "name": "",
          "type": "uint256"
        }
      ],
      "name": "purchaseRecords",
      "outputs": [
        {
          "internalType": "string",
          "name": "brandName",
          "type": "string"
        },
        {
          "internalType": "string",
          "name": "scentType",
          "type": "string"
        },
        {
          "internalType": "uint256",
          "name": "purchaseDate",
          "type": "uint256"
        }
      ],
      "stateMutability": "view",
      "type": "function"
    },
    {
      "inputs": [],
      "name": "renounceOwnership",
      "outputs": [],
      "stateMutability": "nonpayable",
      "type": "function"
    },
    {
      "inputs": [
        {
          "internalType": "address",
          "name": "to",
          "type": "address"
        },
        {
          "internalType": "string",
          "name": "uri",
          "type": "string"
        },
        {
          "internalType": "string",
          "name": "_brandName",
          "type": "string"
        },
        {
          "internalType": "string",
          "name": "_scentType",
          "type": "string"
        }
      ],
      "name": "safeMint",
      "outputs": [],
      "stateMutability": "nonpayable",
      "type": "function"
    },
    {
      "inputs": [
        {
          "internalType": "address",
          "name": "from",
          "type": "address"
        },
        {
          "internalType": "address",
          "name": "to",
          "type": "address"
        },
        {
          "internalType": "uint256",
          "name": "tokenId",
          "type": "uint256"
        }
      ],
      "name": "safeTransferFrom",
      "outputs": [],
      "stateMutability": "nonpayable",
      "type": "function"
    },
    {
      "inputs": [
        {
          "internalType": "address",
          "name": "from",
          "type": "address"
        },
        {
          "internalType": "address",
          "name": "to",
          "type": "address"
        },
        {
          "internalType": "uint256",
          "name": "tokenId",
          "type": "uint256"
        },
        {
          "internalType": "bytes",
          "name": "data",
          "type": "bytes"
        }
      ],
      "name": "safeTransferFrom",
      "outputs": [],
      "stateMutability": "nonpayable",
      "type": "function"
    },
    {
      "inputs": [
        {
          "internalType": "address",
          "name": "operator",
          "type": "address"
        },
        {
          "internalType": "bool",
          "name": "approved",
          "type": "bool"
        }
      ],
      "name": "setApprovalForAll",
      "outputs": [],
      "stateMutability": "nonpayable",
      "type": "function"
    },
    {
      "inputs": [
        {
          "internalType": "bytes4",
          "name": "interfaceId",
          "type": "bytes4"
        }
      ],
      "name": "supportsInterface",
      "outputs": [
        {
          "internalType": "bool",
          "name": "",
          "type": "bool"
        }
      ],
      "stateMutability": "view",
      "type": "function"
    },
    {
      "inputs": [],
      "name": "symbol",
      "outputs": [
        {
          "internalType": "string",
          "name": "",
          "type": "string"
        }
      ],
      "stateMutability": "view",
      "type": "function"
    },
    {
      "inputs": [
        {
          "internalType": "uint256",
          "name": "tokenId",
          "type": "uint256"
        }
      ],
      "name": "tokenURI",
      "outputs": [
        {
          "internalType": "string",
          "name": "",
          "type": "string"
        }
      ],
      "stateMutability": "view",
      "type": "function"
    },
    {
      "inputs": [
        {
          "internalType": "address",
          "name": "from",
          "type": "address"
        },
        {
          "internalType": "address",
          "name": "to",
          "type": "address"
        },
        {
          "internalType": "uint256",
          "name": "tokenId",
          "type": "uint256"
        }
      ],
      "name": "transferFrom",
      "outputs": [],
      "stateMutability": "nonpayable",
      "type": "function"
    },
    {
      "inputs": [
        {
          "internalType": "address",
          "name": "newOwner",
          "type": "address"
        }
      ],
      "name": "transferOwnership",
      "outputs": [],
      "stateMutability": "nonpayable",
      "type": "function"
    }
  ],
  "bytecode": "0x608060405234801562000010575f80fd5b50336040518060400160405280601481526020017f4b6f756f6820457870657269656e6365204e4654000000000000000000000000815250604051806040016040528060058152602001640969eaa9e960db1b815250815f9081620000769190620001b7565b506001620000858282620001b7565b5050506001600160a01b038116620000b657604051631e4fbdf760e01b81525f600482015260240160405180910390fd5b620000c181620000c8565b5062000283565b600780546001600160a01b038381166001600160a01b0319831681179093556040519116919082907f8be0079c531659141344cd1fd0a4f28419497f9722a3daafe3b4186f6b6457e0905f90a35050565b634e487b7160e01b5f52604160045260245ffd5b600181811c908216806200014257607f821691505b6020821081036200016157634e487b7160e01b5f52602260045260245ffd5b50919050565b601f821115620001b257805f5260205f20601f840160051c810160208510156200018e5750805b601f840160051c820191505b81811015620001af575f81556001016200019a565b50505b505050565b81516001600160401b03811115620001d357620001d362000119565b620001eb81620001e484546200012d565b8462000167565b602080601f83116001811462000221575f8415620002095750858301515b5f19600386901b1c1916600185901b1785556200027b565b5f85815260208120601f198616915b82811015620002515788860151825594840194600190910190840162000230565b50858210156200026f57878501515f19600388901b60f8161c191681555b505060018460011b0185555b505050505050565b61181080620002915f395ff3fe608060405234801561000f575f80fd5b506004361061011c575f3560e01c806370a08231116100a9578063a22cb4651161006e578063a22cb4651461026d578063b88d4fde14610280578063c87b56dd14610293578063e985e9c5146102a6578063f2fde38b146102b9575f80fd5b806370a0823114610209578063715018a61461022a57806376b01941146102325780638da5cb5b1461025457806395d89b4114610265575f80fd5b8063095ea7b3116100ef578063095ea7b31461019d57806323b872dd146101b057806342842e0e146101c357806358875049146101d65780636352211e146101f6575f80fd5b806301ffc9a71461012057806303a80dfb1461014857806306fdde031461015d578063081812fc14610172575b5f80fd5b61013361012e366004611242565b6102cc565b60405190151581526020015b60405180910390f35b61015b61015636600461131d565b6102f6565b005b610165610387565b60405161013f91906113fd565b61018561018036600461140f565b610416565b6040516001600160a01b03909116815260200161013f565b61015b6101ab366004611426565b61043d565b61015b6101be36600461144e565b61044c565b61015b6101d136600461144e565b6104da565b6101e96101e436600461140f565b6104f9565b60405161013f9190611487565b61018561020436600461140f565b61066e565b61021c6102173660046114d6565b610678565b60405190815260200161013f565b61015b6106bd565b61024561024036600461140f565b6106d0565b60405161013f939291906114ef565b6007546001600160a01b0316610185565b6101656107fd565b61015b61027b366004611524565b61080c565b61015b61028e36600461155d565b610817565b6101656102a136600461140f565b61082f565b6101336102b43660046115c8565b6108b0565b61015b6102c73660046114d6565b6108dd565b5f6001600160e01b03198216632483248360e11b14806102f057506102f08261091a565b92915050565b6102fe610969565b600880545f918261030e836115f9565b91905055905061031e8582610996565b61032881856109af565b60408051606081018252848152602080820185905242828401525f8481526009909152919091208151819061035d9082611699565b50602082015160018201906103729082611699565b50604082015181600201559050505050505050565b60605f80546103959061161d565b80601f01602080910402602001604051908101604052809291908181526020018280546103c19061161d565b801561040c5780601f106103e35761010080835404028352916020019161040c565b820191905f5260205f20905b8154815290600101906020018083116103ef57829003601f168201915b5050505050905090565b5f610420826109fe565b505f828152600460205260409020546001600160a01b03166102f0565b610448828233610a36565b5050565b6001600160a01b03821661047a57604051633250574960e11b81525f60048201526024015b60405180910390fd5b5f610486838333610a43565b9050836001600160a01b0316816001600160a01b0316146104d4576040516364283d7b60e01b81526001600160a01b0380861660048301526024820184905282166044820152606401610471565b50505050565b6104f483838360405180602001604052805f815250610817565b505050565b61051c604051806060016040528060608152602001606081526020015f81525090565b610525826109fe565b505f828152600960205260409081902081516060810190925280548290829061054d9061161d565b80601f01602080910402602001604051908101604052809291908181526020018280546105799061161d565b80156105c45780601f1061059b576101008083540402835291602001916105c4565b820191905f5260205f20905b8154815290600101906020018083116105a757829003601f168201915b505050505081526020016001820180546105dd9061161d565b80601f01602080910402602001604051908101604052809291908181526020018280546106099061161d565b80156106545780601f1061062b57610100808354040283529160200191610654565b820191905f5260205f20905b81548152906001019060200180831161063757829003601f168201915b505050505081526020016002820154815250509050919050565b5f6102f0826109fe565b5f6001600160a01b0382166106a2576040516322718ad960e21b81525f6004820152602401610471565b506001600160a01b03165f9081526003602052604090205490565b6106c5610969565b6106ce5f610b35565b565b60096020525f90815260409020805481906106ea9061161d565b80601f01602080910402602001604051908101604052809291908181526020018280546107169061161d565b80156107615780601f1061073857610100808354040283529160200191610761565b820191905f5260205f20905b81548152906001019060200180831161074457829003601f168201915b5050505050908060010180546107769061161d565b80601f01602080910402602001604051908101604052809291908181526020018280546107a29061161d565b80156107ed5780601f106107c4576101008083540402835291602001916107ed565b820191905f5260205f20905b8154815290600101906020018083116107d057829003601f168201915b5050505050908060020154905083565b6060600180546103959061161d565b610448338383610b86565b61082284848461044c565b6104d43385858585610c4d565b606061083a826109fe565b505f61085060408051602081019091525f815290565b90505f61085c84610d75565b905081515f0361086d579392505050565b80511561089f578181604051602001610887929190611755565b60405160208183030381529060405292505050919050565b6108a884610e14565b949350505050565b6001600160a01b039182165f90815260056020908152604080832093909416825291909152205460ff1690565b6108e5610969565b6001600160a01b03811661090e57604051631e4fbdf760e01b81525f6004820152602401610471565b61091781610b35565b50565b5f6001600160e01b031982166380ac58cd60e01b148061094a57506001600160e01b03198216635b5e139f60e01b145b806102f057506301ffc9a760e01b6001600160e01b03198316146102f0565b6007546001600160a01b031633146106ce5760405163118cdaa760e01b8152336004820152602401610471565b610448828260405180602001604052805f815250610e85565b5f8281526006602052604090206109c68282611699565b506040518281527ff8e1a15aba9398e019f0b49df1a4fde98ee17ae345cb5f6b5e2c27f5033e8ce79060200160405180910390a15050565b5f818152600260205260408120546001600160a01b0316806102f057604051637e27328960e01b815260048101849052602401610471565b6104f48383836001610e9c565b5f828152600260205260408120546001600160a01b0390811690831615610a6f57610a6f818486610fa0565b6001600160a01b03811615610aa957610a8a5f855f80610e9c565b6001600160a01b0381165f90815260036020526040902080545f190190555b6001600160a01b03851615610ad7576001600160a01b0385165f908152600360205260409020805460010190555b5f8481526002602052604080822080546001600160a01b0319166001600160a01b0389811691821790925591518793918516917fddf252ad1be2c89b69c2b068fc378daa952ba7f163c4a11628f55a4df523b3ef91a4949350505050565b600780546001600160a01b038381166001600160a01b0319831681179093556040519116919082907f8be0079c531659141344cd1fd0a4f28419497f9722a3daafe3b4186f6b6457e0905f90a35050565b6001600160a01b038316610baf5760405163a9fbf51f60e01b81525f6004820152602401610471565b6001600160a01b038216610be157604051630b61174360e31b81526001600160a01b0383166004820152602401610471565b6001600160a01b038381165f81815260056020908152604080832094871680845294825291829020805460ff191686151590811790915591519182527f17307eab39ab6107e8899845ad3d59bd9653f200f220920489ca2b5937696c31910160405180910390a3505050565b6001600160a01b0383163b15610d6e57604051630a85bd0160e11b81526001600160a01b0384169063150b7a0290610c8f908890889087908790600401611783565b6020604051808303815f875af1925050508015610cc9575060408051601f3d908101601f19168201909252610cc6918101906117bf565b60015b610d30573d808015610cf6576040519150601f19603f3d011682016040523d82523d5f602084013e610cfb565b606091505b5080515f03610d2857604051633250574960e11b81526001600160a01b0385166004820152602401610471565b805160208201fd5b6001600160e01b03198116630a85bd0160e11b14610d6c57604051633250574960e11b81526001600160a01b0385166004820152602401610471565b505b5050505050565b5f818152600660205260409020805460609190610d919061161d565b80601f0160208091040260200160405190810160405280929190818152602001828054610dbd9061161d565b8015610e085780601f10610ddf57610100808354040283529160200191610e08565b820191905f5260205f20905b815481529060010190602001808311610deb57829003601f168201915b50505050509050919050565b6060610e1f826109fe565b505f610e3560408051602081019091525f815290565b90505f815111610e535760405180602001604052805f815250610e7e565b80610e5d84611004565b604051602001610e6e929190611755565b6040516020818303038152906040525b9392505050565b610e8f8383611094565b6104f4335f858585610c4d565b8080610eb057506001600160a01b03821615155b15610f71575f610ebf846109fe565b90506001600160a01b03831615801590610eeb5750826001600160a01b0316816001600160a01b031614155b8015610efe5750610efc81846108b0565b155b15610f275760405163a9fbf51f60e01b81526001600160a01b0384166004820152602401610471565b8115610f6f5783856001600160a01b0316826001600160a01b03167f8c5be1e5ebec7d5bd14f71427d1e84f3dd0314c0f7b2291e5b200ac8c7c3b92560405160405180910390a45b505b50505f90815260046020526040902080546001600160a01b0319166001600160a01b0392909216919091179055565b610fab8383836110f5565b6104f4576001600160a01b038316610fd957604051637e27328960e01b815260048101829052602401610471565b60405163177e802f60e01b81526001600160a01b038316600482015260248101829052604401610471565b60605f61101083611156565b60010190505f8167ffffffffffffffff81111561102f5761102f611278565b6040519080825280601f01601f191660200182016040528015611059576020820181803683370190505b5090508181016020015b5f19016f181899199a1a9b1b9c1cb0b131b232b360811b600a86061a8153600a850494508461106357509392505050565b6001600160a01b0382166110bd57604051633250574960e11b81525f6004820152602401610471565b5f6110c983835f610a43565b90506001600160a01b038116156104f4576040516339e3563760e11b81525f6004820152602401610471565b5f6001600160a01b038316158015906108a85750826001600160a01b0316846001600160a01b0316148061112e575061112e84846108b0565b806108a85750505f908152600460205260409020546001600160a01b03908116911614919050565b5f8072184f03e93ff9f4daa797ed6e38ed64bf6a1f0160401b83106111945772184f03e93ff9f4daa797ed6e38ed64bf6a1f0160401b830492506040015b6d04ee2d6d415b85acef810000000083106111c0576d04ee2d6d415b85acef8100000000830492506020015b662386f26fc1000083106111de57662386f26fc10000830492506010015b6305f5e10083106111f6576305f5e100830492506008015b612710831061120a57612710830492506004015b6064831061121c576064830492506002015b600a83106102f05760010192915050565b6001600160e01b031981168114610917575f80fd5b5f60208284031215611252575f80fd5b8135610e7e8161122d565b80356001600160a01b0381168114611273575f80fd5b919050565b634e487b7160e01b5f52604160045260245ffd5b5f67ffffffffffffffff808411156112a6576112a6611278565b604051601f8501601f19908116603f011681019082821181831017156112ce576112ce611278565b816040528093508581528686860111156112e6575f80fd5b858560208301375f602087830101525050509392505050565b5f82601f83011261130e575f80fd5b610e7e8383356020850161128c565b5f805f8060808587031215611330575f80fd5b6113398561125d565b9350602085013567ffffffffffffffff80821115611355575f80fd5b611361888389016112ff565b94506040870135915080821115611376575f80fd5b611382888389016112ff565b93506060870135915080821115611397575f80fd5b506113a4878288016112ff565b91505092959194509250565b5f5b838110156113ca5781810151838201526020016113b2565b50505f910152565b5f81518084526113e98160208601602086016113b0565b601f01601f19169290920160200192915050565b602081525f610e7e60208301846113d2565b5f6020828403121561141f575f80fd5b5035919050565b5f8060408385031215611437575f80fd5b6114408361125d565b946020939093013593505050565b5f805f60608486031215611460575f80fd5b6114698461125d565b92506114776020850161125d565b9150604084013590509250925092565b602081525f8251606060208401526114a260808401826113d2565b90506020840151601f198483030160408501526114bf82826113d2565b915050604084015160608401528091505092915050565b5f602082840312156114e6575f80fd5b610e7e8261125d565b606081525f61150160608301866113d2565b828103602084015261151381866113d2565b915050826040830152949350505050565b5f8060408385031215611535575f80fd5b61153e8361125d565b915060208301358015158114611552575f80fd5b809150509250929050565b5f805f8060808587031215611570575f80fd5b6115798561125d565b93506115876020860161125d565b925060408501359150606085013567ffffffffffffffff8111156115a9575f80fd5b8501601f810187136115b9575f80fd5b6113a48782356020840161128c565b5f80604083850312156115d9575f80fd5b6115e28361125d565b91506115f06020840161125d565b90509250929050565b5f6001820161161657634e487b7160e01b5f52601160045260245ffd5b5060010190565b600181811c9082168061163157607f821691505b60208210810361164f57634e487b7160e01b5f52602260045260245ffd5b50919050565b601f8211156104f457805f5260205f20601f840160051c8101602085101561167a5750805b601f840160051c820191505b81811015610d6e575f8155600101611686565b815167ffffffffffffffff8111156116b3576116b3611278565b6116c7816116c1845461161d565b84611655565b602080601f8311600181146116fa575f84156116e35750858301515b5f19600386901b1c1916600185901b178555610d6c565b5f85815260208120601f198616915b8281101561172857888601518255948401946001909101908401611709565b508582101561174557878501515f19600388901b60f8161c191681555b5050505050600190811b01905550565b5f83516117668184602088016113b0565b83519083019061177a8183602088016113b0565b01949350505050565b6001600160a01b03858116825284166020820152604081018390526080606082018190525f906117b5908301846113d2565b9695505050505050565b5f602082840312156117cf575f80fd5b8151610e7e8161122d56fea2646970667358221220c792eb8d61d26eda1302b9a932443fe9b27045865bdce79750599e149289357c64736f6c63430008180033",
  "linkReferences": {},
  "deployedLinkReferences": {}
}